{
  "_format": "hh-sol-artifact-1",
  "contractName": "Tmkt",
  "sourceName": "contracts/Tmkt.sol",
  "abi": [
    {
      "inputs": [
        {
          "internalType": "uint256",
          "name": "_index",
          "type": "uint256"
        },
        {
          "internalType": "address",
          "name": "_vendorAddress",
          "type": "address"
        }
      ],
      "name": "cancelService",
      "outputs": [],
      "stateMutability": "nonpayable",
      "type": "function"
    },
    {
      "inputs": [
        {
          "internalType": "uint256",
          "name": "_index",
          "type": "uint256"
        },
        {
          "internalType": "address",
          "name": "_vendorAddress",
          "type": "address"
        }
      ],
      "name": "confirmService",
      "outputs": [],
      "stateMutability": "nonpayable",
      "type": "function"
    },
    {
      "inputs": [
        {
          "internalType": "uint256",
          "name": "vendorIndex",
          "type": "uint256"
        },
        {
          "internalType": "address payable",
          "name": "vendor",
          "type": "address"
        }
      ],
      "name": "createTransaction",
      "outputs": [],
      "stateMutability": "payable",
      "type": "function"
    },
    {
      "inputs": [
        {
          "internalType": "string",
          "name": "_businessName",
          "type": "string"
        },
        {
          "internalType": "string",
          "name": "_profession",
          "type": "string"
        },
        {
          "internalType": "string",
          "name": "_filePath",
          "type": "string"
        },
        {
          "internalType": "string",
          "name": "_description",
          "type": "string"
        },
        {
          "internalType": "uint256",
          "name": "_price",
          "type": "uint256"
        }
      ],
      "name": "createVendor",
      "outputs": [],
      "stateMutability": "nonpayable",
      "type": "function"
    },
    {
      "inputs": [],
      "name": "getBal",
      "outputs": [
        {
          "internalType": "uint256",
          "name": "",
          "type": "uint256"
        }
      ],
      "stateMutability": "view",
      "type": "function"
    },
    {
      "inputs": [],
      "name": "getTransactionCount",
      "outputs": [
        {
          "internalType": "uint256",
          "name": "",
          "type": "uint256"
        }
      ],
      "stateMutability": "view",
      "type": "function"
    },
    {
      "inputs": [
        {
          "internalType": "uint256",
          "name": "_index",
          "type": "uint256"
        },
        {
          "internalType": "address",
          "name": "_customerAddress",
          "type": "address"
        }
      ],
      "name": "getTransactions",
      "outputs": [
        {
          "internalType": "uint256",
          "name": "transactionIndex",
          "type": "uint256"
        },
        {
          "internalType": "uint256",
          "name": "vendorIndex",
          "type": "uint256"
        },
        {
          "internalType": "address",
          "name": "vendor",
          "type": "address"
        },
        {
          "internalType": "address",
          "name": "customer",
          "type": "address"
        },
        {
          "internalType": "uint256",
          "name": "amount",
          "type": "uint256"
        },
        {
          "internalType": "enum Tmkt.Status",
          "name": "status",
          "type": "uint8"
        },
        {
          "internalType": "uint256",
          "name": "dateCreated",
          "type": "uint256"
        },
        {
          "internalType": "uint256",
          "name": "dateCompleted",
          "type": "uint256"
        },
        {
          "internalType": "uint256",
          "name": "dateReviewing",
          "type": "uint256"
        },
        {
          "internalType": "string",
          "name": "filePath",
          "type": "string"
        },
        {
          "internalType": "string",
          "name": "businessName",
          "type": "string"
        }
      ],
      "stateMutability": "view",
      "type": "function"
    },
    {
      "inputs": [],
      "name": "getVendorCount",
      "outputs": [
        {
          "internalType": "uint256",
          "name": "",
          "type": "uint256"
        }
      ],
      "stateMutability": "view",
      "type": "function"
    },
    {
      "inputs": [],
      "name": "getVendorTransactionCount",
      "outputs": [
        {
          "internalType": "uint256",
          "name": "",
          "type": "uint256"
        }
      ],
      "stateMutability": "view",
      "type": "function"
    },
    {
      "inputs": [
        {
          "internalType": "uint256",
          "name": "_index",
          "type": "uint256"
        },
        {
          "internalType": "address",
          "name": "_vendorAddress",
          "type": "address"
        }
      ],
      "name": "getVendorTransactions",
      "outputs": [
        {
          "internalType": "uint256",
          "name": "transactionIndex",
          "type": "uint256"
        },
        {
          "internalType": "address",
          "name": "customer",
          "type": "address"
        },
        {
          "internalType": "enum Tmkt.Status",
          "name": "status",
          "type": "uint8"
        },
        {
          "internalType": "uint256",
          "name": "dateCreated",
          "type": "uint256"
        },
        {
          "internalType": "uint256",
          "name": "dateCompleted",
          "type": "uint256"
        }
      ],
      "stateMutability": "view",
      "type": "function"
    },
    {
      "inputs": [
        {
          "internalType": "uint256",
          "name": "_index",
          "type": "uint256"
        }
      ],
      "name": "getVendors",
      "outputs": [
        {
          "internalType": "uint256",
          "name": "id",
          "type": "uint256"
        },
        {
          "internalType": "address",
          "name": "vendorAddress",
          "type": "address"
        },
        {
          "internalType": "string",
          "name": "businessName",
          "type": "string"
        },
        {
          "internalType": "string",
          "name": "filePath",
          "type": "string"
        },
        {
          "internalType": "string",
          "name": "description",
          "type": "string"
        },
        {
          "internalType": "string",
          "name": "profession",
          "type": "string"
        },
        {
          "internalType": "uint256",
          "name": "price",
          "type": "uint256"
        },
        {
          "internalType": "uint256",
          "name": "totalAmount",
          "type": "uint256"
        },
        {
          "internalType": "uint256",
          "name": "transCount",
          "type": "uint256"
        },
        {
          "internalType": "int256",
          "name": "rating",
          "type": "int256"
        }
      ],
      "stateMutability": "view",
      "type": "function"
    },
    {
      "inputs": [],
      "name": "refundInProgressTransactions",
      "outputs": [],
      "stateMutability": "nonpayable",
      "type": "function"
    },
    {
      "inputs": [],
      "name": "refundReviewTransactions",
      "outputs": [],
      "stateMutability": "nonpayable",
      "type": "function"
    },
    {
      "inputs": [
        {
          "internalType": "uint256",
          "name": "_index",
          "type": "uint256"
        },
        {
          "internalType": "address",
          "name": "_customerAddress",
          "type": "address"
        }
      ],
      "name": "serviceReviewing",
      "outputs": [],
      "stateMutability": "nonpayable",
      "type": "function"
    },
    {
      "inputs": [
        {
          "internalType": "address",
          "name": "_vendorAddress",
          "type": "address"
        },
        {
          "internalType": "uint256",
          "name": "_tipAmount",
          "type": "uint256"
        }
      ],
      "name": "tipVendor",
      "outputs": [],
      "stateMutability": "nonpayable",
      "type": "function"
    },
    {
      "inputs": [
        {
          "internalType": "uint256",
          "name": "_index",
          "type": "uint256"
        },
        {
          "internalType": "address",
          "name": "_customerAddress",
          "type": "address"
        }
      ],
      "name": "vendorCancelService",
      "outputs": [],
      "stateMutability": "nonpayable",
      "type": "function"
    },
    {
      "inputs": [],
      "name": "vendorCount",
      "outputs": [
        {
          "internalType": "uint256",
          "name": "",
          "type": "uint256"
        }
      ],
      "stateMutability": "view",
      "type": "function"
    },
    {
      "inputs": [
        {
          "internalType": "address",
          "name": "",
          "type": "address"
        }
      ],
      "name": "vendorExists",
      "outputs": [
        {
          "internalType": "bool",
          "name": "",
          "type": "bool"
        }
      ],
      "stateMutability": "view",
      "type": "function"
    }
  ],
  "bytecode": "0x608060405234801561001057600080fd5b50613fbe806100206000396000f3fe6080604052600436106101095760003560e01c80637f39836811610095578063a3ac561711610064578063a3ac561714610358578063ac4caef01461036f578063dd970f1014610398578063df6403fa146103de578063e2a80b1a1461040757610109565b80637f398368146102c05780638858287b146102eb5780639a6239d814610316578063a12eba7c1461032d57610109565b80633e6dbf55116100dc5780633e6dbf55146101b65780633f1f2d24146101f757806359b46d051461023e5780635c058738146102675780637cf4c543146102a457610109565b806325caa2621461010e5780632e7700f01461013957806339213d32146101645780633aeae64d1461018d575b600080fd5b34801561011a57600080fd5b50610123610430565b6040516101309190612bbb565b60405180910390f35b34801561014557600080fd5b5061014e610438565b60405161015b9190612bbb565b60405180910390f35b34801561017057600080fd5b5061018b60048036038101906101869190612c74565b61047f565b005b34801561019957600080fd5b506101b460048036038101906101af9190612c74565b610843565b005b3480156101c257600080fd5b506101dd60048036038101906101d89190612c74565b610a9f565b6040516101ee959493929190612d3a565b60405180910390f35b34801561020357600080fd5b5061021e60048036038101906102199190612c74565b610bf4565b6040516102359b9a99989796959493929190612e1d565b60405180910390f35b34801561024a57600080fd5b5061026560048036038101906102609190612ed6565b610e41565b005b34801561027357600080fd5b5061028e60048036038101906102899190612f16565b610ef2565b60405161029b9190612f5e565b60405180910390f35b6102be60048036038101906102b99190612fb7565b610f12565b005b3480156102cc57600080fd5b506102d561150f565b6040516102e29190612bbb565b60405180910390f35b3480156102f757600080fd5b50610300611556565b60405161030d9190612bbb565b60405180910390f35b34801561032257600080fd5b5061032b61155c565b005b34801561033957600080fd5b506103426119c5565b60405161034f9190612bbb565b60405180910390f35b34801561036457600080fd5b5061036d6119cf565b005b34801561037b57600080fd5b5061039660048036038101906103919190612c74565b611e70565b005b3480156103a457600080fd5b506103bf60048036038101906103ba9190612ff7565b61214a565b6040516103d59a9998979695949392919061303d565b60405180910390f35b3480156103ea57600080fd5b506104056004803603810190610400919061322a565b61240c565b005b34801561041357600080fd5b5061042e60048036038101906104299190612c74565b6125e4565b005b600047905090565b6000600260003373ffffffffffffffffffffffffffffffffffffffff1673ffffffffffffffffffffffffffffffffffffffff16815260200190815260200160002054905090565b6000600460003373ffffffffffffffffffffffffffffffffffffffff1673ffffffffffffffffffffffffffffffffffffffff16815260200190815260200160002083815481106104d2576104d1613315565b5b906000526020600020906008020190506000600560008473ffffffffffffffffffffffffffffffffffffffff1673ffffffffffffffffffffffffffffffffffffffff168152602001908152602001600020848154811061053557610534613315565b5b906000526020600020906005020190503373ffffffffffffffffffffffffffffffffffffffff168260020160009054906101000a900473ffffffffffffffffffffffffffffffffffffffff1673ffffffffffffffffffffffffffffffffffffffff16146105d7576040517f08c379a00000000000000000000000000000000000000000000000000000000081526004016105ce906133b6565b60405180910390fd5b600260038111156105eb576105ea612cc3565b5b8260040160009054906101000a900460ff16600381111561060f5761060e612cc3565b5b148061065057506001600381111561062a57610629612cc3565b5b8260040160009054906101000a900460ff16600381111561064e5761064d612cc3565b5b145b61068f576040517f08c379a000000000000000000000000000000000000000000000000000000000815260040161068690613448565b60405180910390fd5b60008373ffffffffffffffffffffffffffffffffffffffff1683600301546040516106b990613499565b60006040518083038185875af1925050503d80600081146106f6576040519150601f19603f3d011682016040523d82523d6000602084013e6106fb565b606091505b505090508061073f576040517f08c379a0000000000000000000000000000000000000000000000000000000008152600401610736906134fa565b60405180910390fd5b60038081111561075257610751612cc3565b5b8360040160006101000a81548160ff0219169083600381111561077857610777612cc3565b5b021790555042836006018190555060038081111561079957610798612cc3565b5b8260010160146101000a81548160ff021916908360038111156107bf576107be612cc3565b5b021790555042826004018190555060006006600085600001548152602001908152602001600020905083600301548160060160008282546108009190613549565b9250508190555080600701600081548092919061081c9061357d565b9190505550806008016000815480929190610836906135c5565b9190505550505050505050565b6000600460008373ffffffffffffffffffffffffffffffffffffffff1673ffffffffffffffffffffffffffffffffffffffff168152602001908152602001600020838154811061089657610895613315565b5b906000526020600020906008020190506000600560003373ffffffffffffffffffffffffffffffffffffffff1673ffffffffffffffffffffffffffffffffffffffff16815260200190815260200160002084815481106108f9576108f8613315565b5b906000526020600020906005020190503373ffffffffffffffffffffffffffffffffffffffff168260010160009054906101000a900473ffffffffffffffffffffffffffffffffffffffff1673ffffffffffffffffffffffffffffffffffffffff161461099b576040517f08c379a00000000000000000000000000000000000000000000000000000000081526004016109929061367f565b60405180910390fd5b6003808111156109ae576109ad612cc3565b5b8260040160009054906101000a900460ff1660038111156109d2576109d1612cc3565b5b03610a12576040517f08c379a0000000000000000000000000000000000000000000000000000000008152600401610a0990613711565b60405180910390fd5b60026003811115610a2657610a25612cc3565b5b8260040160006101000a81548160ff02191690836003811115610a4c57610a4b612cc3565b5b021790555042826007018190555060026003811115610a6e57610a6d612cc3565b5b8160010160146101000a81548160ff02191690836003811115610a9457610a93612cc3565b5b021790555050505050565b600080600080600060011515600760008873ffffffffffffffffffffffffffffffffffffffff1673ffffffffffffffffffffffffffffffffffffffff16815260200190815260200160002060009054906101000a900460ff16151514610b3a576040517f08c379a0000000000000000000000000000000000000000000000000000000008152600401610b319061377d565b60405180910390fd5b6000600560008873ffffffffffffffffffffffffffffffffffffffff1673ffffffffffffffffffffffffffffffffffffffff1681526020019081526020016000208881548110610b8d57610b8c613315565b5b90600052602060002090600502019050878160010160009054906101000a900473ffffffffffffffffffffffffffffffffffffffff168260010160149054906101000a900460ff168360030154846004015495509550955095509550509295509295909350565b60008060008060008060008060006060806000600460008e73ffffffffffffffffffffffffffffffffffffffff1673ffffffffffffffffffffffffffffffffffffffff1681526020019081526020016000208e81548110610c5857610c57613315565b5b906000526020600020906008020190506000600660008360000154815260200190815260200160002090508e82600001548360010160009054906101000a900473ffffffffffffffffffffffffffffffffffffffff168460020160009054906101000a900473ffffffffffffffffffffffffffffffffffffffff1685600301548660040160009054906101000a900460ff16876005015488600601548960070154896003018a600101818054610d0d906137cc565b80601f0160208091040260200160405190810160405280929190818152602001828054610d39906137cc565b8015610d865780601f10610d5b57610100808354040283529160200191610d86565b820191906000526020600020905b815481529060010190602001808311610d6957829003601f168201915b50505050509150808054610d99906137cc565b80601f0160208091040260200160405190810160405280929190818152602001828054610dc5906137cc565b8015610e125780601f10610de757610100808354040283529160200191610e12565b820191906000526020600020905b815481529060010190602001808311610df557829003601f168201915b505050505090509c509c509c509c509c509c509c509c509c509c509c5050509295989b509295989b9093969950565b60008273ffffffffffffffffffffffffffffffffffffffff1682604051610e6790613499565b60006040518083038185875af1925050503d8060008114610ea4576040519150601f19603f3d011682016040523d82523d6000602084013e610ea9565b606091505b5050905080610eed576040517f08c379a0000000000000000000000000000000000000000000000000000000008152600401610ee4906134fa565b60405180910390fd5b505050565b60076020528060005260406000206000915054906101000a900460ff1681565b600154821115610f57576040517f08c379a0000000000000000000000000000000000000000000000000000000008152600401610f4e90613849565b60405180910390fd5b3373ffffffffffffffffffffffffffffffffffffffff168173ffffffffffffffffffffffffffffffffffffffff1603610fc5576040517f08c379a0000000000000000000000000000000000000000000000000000000008152600401610fbc906138b5565b60405180910390fd5b600060066000848152602001908152602001600020905034816005015414611022576040517f08c379a000000000000000000000000000000000000000000000000000000000815260040161101990613921565b60405180910390fd5b8173ffffffffffffffffffffffffffffffffffffffff168160000160009054906101000a900473ffffffffffffffffffffffffffffffffffffffff1673ffffffffffffffffffffffffffffffffffffffff16146110b4576040517f08c379a00000000000000000000000000000000000000000000000000000000081526004016110ab9061398d565b60405180910390fd5b6000600160038111156110ca576110c9612cc3565b5b9050600460003373ffffffffffffffffffffffffffffffffffffffff1673ffffffffffffffffffffffffffffffffffffffff1681526020019081526020016000206040518061010001604052808681526020018573ffffffffffffffffffffffffffffffffffffffff1681526020013373ffffffffffffffffffffffffffffffffffffffff16815260200134815260200183600381111561116e5761116d612cc3565b5b815260200142815260200160008152602001600081525090806001815401808255809150506001900390600052602060002090600802016000909190919091506000820151816000015560208201518160010160006101000a81548173ffffffffffffffffffffffffffffffffffffffff021916908373ffffffffffffffffffffffffffffffffffffffff16021790555060408201518160020160006101000a81548173ffffffffffffffffffffffffffffffffffffffff021916908373ffffffffffffffffffffffffffffffffffffffff1602179055506060820151816003015560808201518160040160006101000a81548160ff0219169083600381111561127b5761127a612cc3565b5b021790555060a0820151816005015560c0820151816006015560e082015181600701555050600560008473ffffffffffffffffffffffffffffffffffffffff1673ffffffffffffffffffffffffffffffffffffffff1681526020019081526020016000206040518060c001604052808573ffffffffffffffffffffffffffffffffffffffff1681526020013373ffffffffffffffffffffffffffffffffffffffff16815260200183600381111561133557611334612cc3565b5b81526020013481526020014281526020016000815250908060018154018082558091505060019003906000526020600020906005020160009091909190915060008201518160000160006101000a81548173ffffffffffffffffffffffffffffffffffffffff021916908373ffffffffffffffffffffffffffffffffffffffff16021790555060208201518160010160006101000a81548173ffffffffffffffffffffffffffffffffffffffff021916908373ffffffffffffffffffffffffffffffffffffffff16021790555060408201518160010160146101000a81548160ff0219169083600381111561142d5761142c612cc3565b5b0217905550606082015181600201556080820151816003015560a0820151816004015550506001600260003373ffffffffffffffffffffffffffffffffffffffff1673ffffffffffffffffffffffffffffffffffffffff16815260200190815260200160002060008282546114a29190613549565b925050819055506001600360008573ffffffffffffffffffffffffffffffffffffffff1673ffffffffffffffffffffffffffffffffffffffff16815260200190815260200160002060008282546114f99190613549565b925050819055506115093361298a565b50505050565b6000600360003373ffffffffffffffffffffffffffffffffffffffff1673ffffffffffffffffffffffffffffffffffffffff16815260200190815260200160002054905090565b60015481565b60008054906101000a900460ff16156115aa576040517f08c379a00000000000000000000000000000000000000000000000000000000081526004016115a1906139f9565b60405180910390fd5b60016000806101000a81548160ff02191690831515021790555060005b6009805490508110156119a8576000600982815481106115ea576115e9613315565b5b9060005260206000200160009054906101000a900473ffffffffffffffffffffffffffffffffffffffff1690506000600560008373ffffffffffffffffffffffffffffffffffffffff1673ffffffffffffffffffffffffffffffffffffffff168152602001908152602001600020905060005b818054905081101561199257600082828154811061167e5761167d613315565b5b90600052602060002090600502019050600260038111156116a2576116a1612cc3565b5b60038111156116b4576116b3612cc3565b5b8160010160149054906101000a900460ff1660038111156116d8576116d7612cc3565b5b1480156116f657506203f48081600301546116f39190613549565b42115b1561197e5760008160000160009054906101000a900473ffffffffffffffffffffffffffffffffffffffff1673ffffffffffffffffffffffffffffffffffffffff16826002015460405161174990613499565b60006040518083038185875af1925050503d8060008114611786576040519150601f19603f3d011682016040523d82523d6000602084013e61178b565b606091505b50509050806117cf576040517f08c379a00000000000000000000000000000000000000000000000000000000081526004016117c6906134fa565b60405180910390fd5b6003808111156117e2576117e1612cc3565b5b8260010160146101000a81548160ff0219169083600381111561180857611807612cc3565b5b02179055504282600401819055506000600460008460010160009054906101000a900473ffffffffffffffffffffffffffffffffffffffff1673ffffffffffffffffffffffffffffffffffffffff1673ffffffffffffffffffffffffffffffffffffffff168152602001908152602001600020905060005b818054905081101561197a5760008282815481106118a1576118a0613315565b5b90600052602060002090600802019050600260038111156118c5576118c4612cc3565b5b60038111156118d7576118d6612cc3565b5b8160040160009054906101000a900460ff1660038111156118fb576118fa612cc3565b5b14801561191957506203f48081600501546119169190613549565b42115b156119665760038081111561193157611930612cc3565b5b8160040160006101000a81548160ff0219169083600381111561195757611956612cc3565b5b02179055504281600601819055505b5080806119729061357d565b915050611880565b5050505b50808061198a9061357d565b91505061165d565b50505080806119a09061357d565b9150506115c7565b5060008060006101000a81548160ff021916908315150217905550565b6000600154905090565b60008054906101000a900460ff1615611a1d576040517f08c379a0000000000000000000000000000000000000000000000000000000008152600401611a14906139f9565b60405180910390fd5b60016000806101000a81548160ff02191690831515021790555060005b600880549050811015611e5357600060088281548110611a5d57611a5c613315565b5b9060005260206000200160009054906101000a900473ffffffffffffffffffffffffffffffffffffffff1690506000600460008373ffffffffffffffffffffffffffffffffffffffff1673ffffffffffffffffffffffffffffffffffffffff168152602001908152602001600020905060005b8180549050811015611e3d576000828281548110611af157611af0613315565b5b9060005260206000209060080201905060016003811115611b1557611b14612cc3565b5b6003811115611b2757611b26612cc3565b5b8160040160009054906101000a900460ff166003811115611b4b57611b4a612cc3565b5b148015611b6957506202a3008160050154611b669190613549565b42115b15611e295760008160020160009054906101000a900473ffffffffffffffffffffffffffffffffffffffff1673ffffffffffffffffffffffffffffffffffffffff168260030154604051611bbc90613499565b60006040518083038185875af1925050503d8060008114611bf9576040519150601f19603f3d011682016040523d82523d6000602084013e611bfe565b606091505b5050905080611c42576040517f08c379a0000000000000000000000000000000000000000000000000000000008152600401611c39906134fa565b60405180910390fd5b600380811115611c5557611c54612cc3565b5b8260040160006101000a81548160ff02191690836003811115611c7b57611c7a612cc3565b5b02179055504282600601819055506000600660008460000154815260200190815260200160002090506002816008016000828254611cb99190613a19565b925050819055506000600560008560010160009054906101000a900473ffffffffffffffffffffffffffffffffffffffff1673ffffffffffffffffffffffffffffffffffffffff1673ffffffffffffffffffffffffffffffffffffffff168152602001908152602001600020905060005b8180549050811015611e24576000828281548110611d4b57611d4a613315565b5b9060005260206000209060050201905060016003811115611d6f57611d6e612cc3565b5b6003811115611d8157611d80612cc3565b5b8160010160149054906101000a900460ff166003811115611da557611da4612cc3565b5b148015611dc357506202a3008160030154611dc09190613549565b42115b15611e1057600380811115611ddb57611dda612cc3565b5b8160010160146101000a81548160ff02191690836003811115611e0157611e00612cc3565b5b02179055504281600401819055505b508080611e1c9061357d565b915050611d2a565b505050505b508080611e359061357d565b915050611ad0565b5050508080611e4b9061357d565b915050611a3a565b5060008060006101000a81548160ff021916908315150217905550565b6000600460008373ffffffffffffffffffffffffffffffffffffffff1673ffffffffffffffffffffffffffffffffffffffff1681526020019081526020016000208381548110611ec357611ec2613315565b5b906000526020600020906008020190506000600560003373ffffffffffffffffffffffffffffffffffffffff1673ffffffffffffffffffffffffffffffffffffffff1681526020019081526020016000208481548110611f2657611f25613315565b5b906000526020600020906005020190506203f4808260050154611f499190613549565b421115611f8b576040517f08c379a0000000000000000000000000000000000000000000000000000000008152600401611f8290613aa8565b60405180910390fd5b60016003811115611f9f57611f9e612cc3565b5b8260040160009054906101000a900460ff166003811115611fc357611fc2612cc3565b5b14612003576040517f08c379a0000000000000000000000000000000000000000000000000000000008152600401611ffa90613b14565b60405180910390fd5b60008373ffffffffffffffffffffffffffffffffffffffff16836003015460405161202d90613499565b60006040518083038185875af1925050503d806000811461206a576040519150601f19603f3d011682016040523d82523d6000602084013e61206f565b606091505b50509050806120b3576040517f08c379a00000000000000000000000000000000000000000000000000000000081526004016120aa906134fa565b60405180910390fd5b600060038111156120c7576120c6612cc3565b5b8360040160006101000a81548160ff021916908360038111156120ed576120ec612cc3565b5b02179055504283600601819055506000600381111561210f5761210e612cc3565b5b8260010160146101000a81548160ff0219169083600381111561213557612134612cc3565b5b02179055504282600401819055505050505050565b6000806060806060806000806000806000600660008d815260200190815260200160002090508b8160000160009054906101000a900473ffffffffffffffffffffffffffffffffffffffff168260010183600301846004018560020186600501548760060154886007015489600801548780546121c6906137cc565b80601f01602080910402602001604051908101604052809291908181526020018280546121f2906137cc565b801561223f5780601f106122145761010080835404028352916020019161223f565b820191906000526020600020905b81548152906001019060200180831161222257829003601f168201915b50505050509750868054612252906137cc565b80601f016020809104026020016040519081016040528092919081815260200182805461227e906137cc565b80156122cb5780601f106122a0576101008083540402835291602001916122cb565b820191906000526020600020905b8154815290600101906020018083116122ae57829003601f168201915b505050505096508580546122de906137cc565b80601f016020809104026020016040519081016040528092919081815260200182805461230a906137cc565b80156123575780601f1061232c57610100808354040283529160200191612357565b820191906000526020600020905b81548152906001019060200180831161233a57829003601f168201915b5050505050955084805461236a906137cc565b80601f0160208091040260200160405190810160405280929190818152602001828054612396906137cc565b80156123e35780601f106123b8576101008083540402835291602001916123e3565b820191906000526020600020905b8154815290600101906020018083116123c657829003601f168201915b505050505094509a509a509a509a509a509a509a509a509a509a50509193959799509193959799565b60001515600760003373ffffffffffffffffffffffffffffffffffffffff1673ffffffffffffffffffffffffffffffffffffffff16815260200190815260200160002060009054906101000a900460ff1615151461249f576040517f08c379a000000000000000000000000000000000000000000000000000000000815260040161249690613b80565b60405180910390fd5b60008060006006600060015481526020019081526020016000209050338160000160006101000a81548173ffffffffffffffffffffffffffffffffffffffff021916908373ffffffffffffffffffffffffffffffffffffffff1602179055508781600101908161250f9190613d4c565b50868160020190816125219190613d4c565b50858160030190816125339190613d4c565b50848160040190816125459190613d4c565b508381600501819055508281600601819055508181600701819055506001600760003373ffffffffffffffffffffffffffffffffffffffff1673ffffffffffffffffffffffffffffffffffffffff16815260200190815260200160002060006101000a81548160ff021916908315150217905550600160008154809291906125cc9061357d565b91905055506125da33612a96565b5050505050505050565b6000600460003373ffffffffffffffffffffffffffffffffffffffff1673ffffffffffffffffffffffffffffffffffffffff168152602001908152602001600020838154811061263757612636613315565b5b906000526020600020906008020190506000600560008473ffffffffffffffffffffffffffffffffffffffff1673ffffffffffffffffffffffffffffffffffffffff168152602001908152602001600020848154811061269a57612699613315565b5b90600052602060002090600502019050600260038111156126be576126bd612cc3565b5b8260040160009054906101000a900460ff1660038111156126e2576126e1612cc3565b5b1415801561270257506203f48082600501546126fe9190613549565b4211155b612741576040517f08c379a000000000000000000000000000000000000000000000000000000000815260040161273890613e6a565b60405180910390fd5b3373ffffffffffffffffffffffffffffffffffffffff168260020160009054906101000a900473ffffffffffffffffffffffffffffffffffffffff1673ffffffffffffffffffffffffffffffffffffffff16146127d3576040517f08c379a00000000000000000000000000000000000000000000000000000000081526004016127ca90613efc565b60405180910390fd5b60008054906101000a900460ff1615612821576040517f08c379a000000000000000000000000000000000000000000000000000000000815260040161281890613f68565b60405180910390fd5b60016000806101000a81548160ff02191690831515021790555060003373ffffffffffffffffffffffffffffffffffffffff16836003015460405161286590613499565b60006040518083038185875af1925050503d80600081146128a2576040519150601f19603f3d011682016040523d82523d6000602084013e6128a7565b606091505b50509050806128eb576040517f08c379a00000000000000000000000000000000000000000000000000000000081526004016128e2906134fa565b60405180910390fd5b60008060006101000a81548160ff0219169083151502179055506000600381111561291957612918612cc3565b5b8360040160006101000a81548160ff0219169083600381111561293f5761293e612cc3565b5b021790555042836006018190555060008260010160146101000a81548160ff0219169083600381111561297557612974612cc3565b5b02179055504282600401819055505050505050565b6000805b600880549050811015612a28578273ffffffffffffffffffffffffffffffffffffffff16600882815481106129c6576129c5613315565b5b9060005260206000200160009054906101000a900473ffffffffffffffffffffffffffffffffffffffff1673ffffffffffffffffffffffffffffffffffffffff1603612a155760019150612a28565b8080612a209061357d565b91505061298e565b5080612a92576008829080600181540180825580915050600190039060005260206000200160009091909190916101000a81548173ffffffffffffffffffffffffffffffffffffffff021916908373ffffffffffffffffffffffffffffffffffffffff1602179055505b5050565b6000805b600980549050811015612b34578273ffffffffffffffffffffffffffffffffffffffff1660098281548110612ad257612ad1613315565b5b9060005260206000200160009054906101000a900473ffffffffffffffffffffffffffffffffffffffff1673ffffffffffffffffffffffffffffffffffffffff1603612b215760019150612b34565b8080612b2c9061357d565b915050612a9a565b5080612b9e576009829080600181540180825580915050600190039060005260206000200160009091909190916101000a81548173ffffffffffffffffffffffffffffffffffffffff021916908373ffffffffffffffffffffffffffffffffffffffff1602179055505b5050565b6000819050919050565b612bb581612ba2565b82525050565b6000602082019050612bd06000830184612bac565b92915050565b6000604051905090565b600080fd5b600080fd5b612bf381612ba2565b8114612bfe57600080fd5b50565b600081359050612c1081612bea565b92915050565b600073ffffffffffffffffffffffffffffffffffffffff82169050919050565b6000612c4182612c16565b9050919050565b612c5181612c36565b8114612c5c57600080fd5b50565b600081359050612c6e81612c48565b92915050565b60008060408385031215612c8b57612c8a612be0565b5b6000612c9985828601612c01565b9250506020612caa85828601612c5f565b9150509250929050565b612cbd81612c36565b82525050565b7f4e487b7100000000000000000000000000000000000000000000000000000000600052602160045260246000fd5b60048110612d0357612d02612cc3565b5b50565b6000819050612d1482612cf2565b919050565b6000612d2482612d06565b9050919050565b612d3481612d19565b82525050565b600060a082019050612d4f6000830188612bac565b612d5c6020830187612cb4565b612d696040830186612d2b565b612d766060830185612bac565b612d836080830184612bac565b9695505050505050565b600081519050919050565b600082825260208201905092915050565b60005b83811015612dc7578082015181840152602081019050612dac565b60008484015250505050565b6000601f19601f8301169050919050565b6000612def82612d8d565b612df98185612d98565b9350612e09818560208601612da9565b612e1281612dd3565b840191505092915050565b600061016082019050612e33600083018e612bac565b612e40602083018d612bac565b612e4d604083018c612cb4565b612e5a606083018b612cb4565b612e67608083018a612bac565b612e7460a0830189612d2b565b612e8160c0830188612bac565b612e8e60e0830187612bac565b612e9c610100830186612bac565b818103610120830152612eaf8185612de4565b9050818103610140830152612ec48184612de4565b90509c9b505050505050505050505050565b60008060408385031215612eed57612eec612be0565b5b6000612efb85828601612c5f565b9250506020612f0c85828601612c01565b9150509250929050565b600060208284031215612f2c57612f2b612be0565b5b6000612f3a84828501612c5f565b91505092915050565b60008115159050919050565b612f5881612f43565b82525050565b6000602082019050612f736000830184612f4f565b92915050565b6000612f8482612c16565b9050919050565b612f9481612f79565b8114612f9f57600080fd5b50565b600081359050612fb181612f8b565b92915050565b60008060408385031215612fce57612fcd612be0565b5b6000612fdc85828601612c01565b9250506020612fed85828601612fa2565b9150509250929050565b60006020828403121561300d5761300c612be0565b5b600061301b84828501612c01565b91505092915050565b6000819050919050565b61303781613024565b82525050565b600061014082019050613053600083018d612bac565b613060602083018c612cb4565b8181036040830152613072818b612de4565b90508181036060830152613086818a612de4565b9050818103608083015261309a8189612de4565b905081810360a08301526130ae8188612de4565b90506130bd60c0830187612bac565b6130ca60e0830186612bac565b6130d8610100830185612bac565b6130e661012083018461302e565b9b9a5050505050505050505050565b600080fd5b600080fd5b7f4e487b7100000000000000000000000000000000000000000000000000000000600052604160045260246000fd5b61313782612dd3565b810181811067ffffffffffffffff82111715613156576131556130ff565b5b80604052505050565b6000613169612bd6565b9050613175828261312e565b919050565b600067ffffffffffffffff821115613195576131946130ff565b5b61319e82612dd3565b9050602081019050919050565b82818337600083830152505050565b60006131cd6131c88461317a565b61315f565b9050828152602081018484840111156131e9576131e86130fa565b5b6131f48482856131ab565b509392505050565b600082601f830112613211576132106130f5565b5b81356132218482602086016131ba565b91505092915050565b600080600080600060a0868803121561324657613245612be0565b5b600086013567ffffffffffffffff81111561326457613263612be5565b5b613270888289016131fc565b955050602086013567ffffffffffffffff81111561329157613290612be5565b5b61329d888289016131fc565b945050604086013567ffffffffffffffff8111156132be576132bd612be5565b5b6132ca888289016131fc565b935050606086013567ffffffffffffffff8111156132eb576132ea612be5565b5b6132f7888289016131fc565b925050608061330888828901612c01565b9150509295509295909350565b7f4e487b7100000000000000000000000000000000000000000000000000000000600052603260045260246000fd5b7f4f6e6c792074686520637573746f6d65722063616e20636f6e6669726d20746860008201527f6520736572766963650000000000000000000000000000000000000000000000602082015250565b60006133a0602983612d98565b91506133ab82613344565b604082019050919050565b600060208201905081810360008301526133cf81613393565b9050919050565b7f5472616e73616374696f6e20686173206265656e20636f6d706c65746564206160008201527f6c72656164790000000000000000000000000000000000000000000000000000602082015250565b6000613432602683612d98565b915061343d826133d6565b604082019050919050565b6000602082019050818103600083015261346181613425565b9050919050565b600081905092915050565b50565b6000613483600083613468565b915061348e82613473565b600082019050919050565b60006134a482613476565b9150819050919050565b7f4661696c656420746f2073656e64204574686572000000000000000000000000600082015250565b60006134e4601483612d98565b91506134ef826134ae565b602082019050919050565b60006020820190508181036000830152613513816134d7565b9050919050565b7f4e487b7100000000000000000000000000000000000000000000000000000000600052601160045260246000fd5b600061355482612ba2565b915061355f83612ba2565b92508282019050808211156135775761357661351a565b5b92915050565b600061358882612ba2565b91507fffffffffffffffffffffffffffffffffffffffffffffffffffffffffffffffff82036135ba576135b961351a565b5b600182019050919050565b60006135d082613024565b91507f7fffffffffffffffffffffffffffffffffffffffffffffffffffffffffffffff82036136025761360161351a565b5b600182019050919050565b7f4f6e6c79207468652056656e646f722063616e20636f6e6669726d207365727660008201527f69636520636f6d706c6574656400000000000000000000000000000000000000602082015250565b6000613669602d83612d98565b91506136748261360d565b604082019050919050565b600060208201905081810360008301526136988161365c565b9050919050565b7f4f6e6c792074686520437573746f6d65722063616e20636f6e6669726d20736560008201527f727669636520636f6d706c657465640000000000000000000000000000000000602082015250565b60006136fb602f83612d98565b91506137068261369f565b604082019050919050565b6000602082019050818103600083015261372a816136ee565b9050919050565b7f596f7520617265206e6f7420612076656e646f72000000000000000000000000600082015250565b6000613767601483612d98565b915061377282613731565b602082019050919050565b600060208201905081810360008301526137968161375a565b9050919050565b7f4e487b7100000000000000000000000000000000000000000000000000000000600052602260045260246000fd5b600060028204905060018216806137e457607f821691505b6020821081036137f7576137f661379d565b5b50919050565b7f56656e646f7220696e64657820646f6573206e6f742065786973740000000000600082015250565b6000613833601b83612d98565b915061383e826137fd565b602082019050919050565b6000602082019050818103600083015261386281613826565b9050919050565b7f596f752063616e27742062757920796f7572206f776e2070726f647563740000600082015250565b600061389f601e83612d98565b91506138aa82613869565b602082019050919050565b600060208201905081810360008301526138ce81613892565b9050919050565b7f57726f6e6720616d6f756e7420656e7465726564000000000000000000000000600082015250565b600061390b601483612d98565b9150613916826138d5565b602082019050919050565b6000602082019050818103600083015261393a816138fe565b9050919050565b7f57726f6e672056656e646f72206164647265737320656e746572656400000000600082015250565b6000613977601c83612d98565b915061398282613941565b602082019050919050565b600060208201905081810360008301526139a68161396a565b9050919050565b7f5265656e7472616e637920646574656374656421000000000000000000000000600082015250565b60006139e3601483612d98565b91506139ee826139ad565b602082019050919050565b60006020820190508181036000830152613a12816139d6565b9050919050565b6000613a2482613024565b9150613a2f83613024565b9250828203905081811260008412168282136000851215161715613a5657613a5561351a565b5b92915050565b7f596f752063616e206e6f742063616e63656c206e6f7700000000000000000000600082015250565b6000613a92601683612d98565b9150613a9d82613a5c565b602082019050919050565b60006020820190508181036000830152613ac181613a85565b9050919050565b7f43616e27742063616e63656c2061742074686973207374616765000000000000600082015250565b6000613afe601a83612d98565b9150613b0982613ac8565b602082019050919050565b60006020820190508181036000830152613b2d81613af1565b9050919050565b7f56656e646f7220616c7265616479206578697374730000000000000000000000600082015250565b6000613b6a601583612d98565b9150613b7582613b34565b602082019050919050565b60006020820190508181036000830152613b9981613b5d565b9050919050565b60008190508160005260206000209050919050565b60006020601f8301049050919050565b600082821b905092915050565b600060088302613c027fffffffffffffffffffffffffffffffffffffffffffffffffffffffffffffffff82613bc5565b613c0c8683613bc5565b95508019841693508086168417925050509392505050565b6000819050919050565b6000613c49613c44613c3f84612ba2565b613c24565b612ba2565b9050919050565b6000819050919050565b613c6383613c2e565b613c77613c6f82613c50565b848454613bd2565b825550505050565b600090565b613c8c613c7f565b613c97818484613c5a565b505050565b5b81811015613cbb57613cb0600082613c84565b600181019050613c9d565b5050565b601f821115613d0057613cd181613ba0565b613cda84613bb5565b81016020851015613ce9578190505b613cfd613cf585613bb5565b830182613c9c565b50505b505050565b600082821c905092915050565b6000613d2360001984600802613d05565b1980831691505092915050565b6000613d3c8383613d12565b9150826002028217905092915050565b613d5582612d8d565b67ffffffffffffffff811115613d6e57613d6d6130ff565b5b613d7882546137cc565b613d83828285613cbf565b600060209050601f831160018114613db65760008415613da4578287015190505b613dae8582613d30565b865550613e16565b601f198416613dc486613ba0565b60005b82811015613dec57848901518255600182019150602085019450602081019050613dc7565b86831015613e095784890151613e05601f891682613d12565b8355505b6001600288020188555050505b505050505050565b7f596f752063616e206e6f742063616e63656c0000000000000000000000000000600082015250565b6000613e54601283612d98565b9150613e5f82613e1e565b602082019050919050565b60006020820190508181036000830152613e8381613e47565b9050919050565b7f4f6e6c792074686520637573746f6d65722063616e2063616e63656c2074686560008201527f2073657276696365000000000000000000000000000000000000000000000000602082015250565b6000613ee6602883612d98565b9150613ef182613e8a565b604082019050919050565b60006020820190508181036000830152613f1581613ed9565b9050919050565b7f526520656e7472616e742063616c6c0000000000000000000000000000000000600082015250565b6000613f52600f83612d98565b9150613f5d82613f1c565b602082019050919050565b60006020820190508181036000830152613f8181613f45565b905091905056fea264697066735822122090c02a1e99de77219347aa3a372acabaee5507ab29d0bd7fe0cb6d9a4d4159f964736f6c63430008110033",
  "linkReferences": {},
  "deployedLinkReferences": {}
}